:100000005CC00000C4C70000EFC700007DC0000056
:100010007BC0000079C0000077C0000075C0000000
:1000200073C0000071C000006FC000006DC0000010
:100030006BC0000069C0000067C0000065C0000020
:100040000C94410861C000005AC100007EC200004B
:1000500043C2000059C0000057C0000055C0000056
:1000600053C0000051C0000001030406000000005E
:100070000000000700020000000000004002040829
:100080001020018001020408102001020408102041
:10009000040202020202040402040404040403032E
:1000A0000303030300000000250028002B000000CC
:1000B0000000240027002A00190311241FBECFEFDF
:1000C000D8E0DEBFCDBF11E0A0E0B1E0E4ECF3E1A9
:1000D00002C005900D92A633B107D9F722E0A6E33E
:1000E000B1E001C01D92A935B207E1F710E0CAEBFB
:1000F000D0E004C02297FE010E94DC09C83BD10772
:10010000C9F7B0D70C94E0097BCF08952FEF4FEFDC
:1001100060E086E391E015D04AEF50E060E070E0E7
:1001200086E391E03AD020E040E060E086E391E0B1
:1001300008D046EA5EE060E070E086E391E02DC022
:100140000895CF93DF9300D01F92CDB7DEB76983B8
:100150004A832B83BE016F5F7F4F80E491E06AD3B7
:100160000F900F900F90DF91CF910895CF935398F8
:1001700080E491E065D380E491E0ACD0CFE1C15060
:1001800049F061E070E080E090E0E8D74B9BF7CF6A
:1001900081E001C080E0CF910895CF92DF92EF928D
:1001A000FF92CF93DF93EC016A017B01539860E0EB
:1001B00070E080E491E014D28AE0C816D104E10432
:1001C000F10418F4C701B60135C0B701A601CE018C
:1001D000CDDF811139C081E3C81685E7D806E10477
:1001E000F104D8F08EE1C816D104E104F10430F036
:1001F0008EE1C81AD108E108F10803C0C12CD12C46
:100200007601B701A601CE01B1DFC114D104E1042A
:10021000F104B9F0882331F317C08FE1C816D10477
:10022000E104F10408F44CC0C701B6016E51710934
:1002300081099109DF91CF91FF90EF90DF90CF90EE
:100240008DC7882309F43CC0D0917A00DD1FDD27DB
:10025000DD1F29F080917A008F7780937A00C0B7F4
:10026000CC1FCC27CC1F19F080B78F7780BF40E020
:1002700050E060EA70E081E05AD683B7817F846005
:1002800083BFF8944B9B0DC083B7816083BF85B754
:10029000806685BF8F7D85BF7894889583B78E7F74
:1002A00083BF789481E063D6DD2329F080917A00C2
:1002B000806880937A00CC2319F080B7806880BF73
:1002C000DF91CF91FF90EF90DF90CF900895089548
:1002D00008950895209100012223E1F3FC0111A269
:1002E0000895DC01ED91FC91DB0114964D915C9138
:1002F00015976D917C910280F381E02D09941F92F6
:100300000F920FB60F9211242F933F934F935F9349
:100310006F937F938F939F93AF93BF93CF93EF93FD
:10032000FF938091C00082FD0BC0C091C6008091F8
:100330003E0190913F0120913D01009721F40EC0B4
:100340008091C600B7C0222319F030E2C32706C04F
:10035000CD3731F481E080933D01ACC021111AC04A
:10036000CE3719F4009749F415C0CF3721F4853002
:10037000910519F40FC0CD3769F410923C01109229
:100380003B0110923A0110923901109238011092FB
:10039000370135C010923D018230910599F154F436
:1003A000009721F1019709F085C0C0933A0182E0DE
:1003B00090E07CC08430910509F44EC07CF1059733
:1003C00009F078C081E080936F0110923F01109294
:1003D0003E0110923C0110923B0110923A011092A2
:1003E0003901109238011092370164C0CE3709F0FC
:1003F00061C081E090E090933F0180933E011092B4
:100400006F0158C010923B01C0933C0180913A01AA
:10041000815080933A0183E090E048C080913B0195
:1004200090913C018C2B90933C0180933B01209157
:100430003A01215020933A01892B19F482E092E08D
:1004400002C080E791E09093380180933701222326
:1004500059F184E090E02AC02091370130913801B1
:1004600021153105E9F0F901EB5BFF4F80819181A6
:10047000019665E470E068D7D901A95BBF4F4D9143
:100480005C918417950739F0A081B181A20FB31F49
:10049000CC939183808380913A01815080933A017B
:1004A00080913A01811106C085E090E090933F0170
:1004B00080933E01FF91EF91CF91BF91AF919F91BA
:1004C0008F917F916F915F914F913F912F910F90FD
:1004D0000FBE0F901F9018951F920F920FB60F929C
:1004E00011242F933F934F935F936F937F938F9339
:1004F0009F93AF93BF93EF93FF932091FE013091B1
:10050000FF0180910002909101022817390761F4E0
:1005100060914B028DE0E3D68091C1008F7B809388
:10052000C10081E080930001FF91EF91BF91AF91F5
:100530009F918F917F916F915F914F913F912F91FB
:100540000F900FBE0F901F9018951F920F920FB62D
:100550000F9211242F933F935F936F937F938F9309
:100560009F93AF93BF93EF93FF932091FE01309140
:10057000FF0180910002909101022817390759F478
:100580008091C1008F7D8093C1008091C100806403
:100590008093C10015C0E0910002F0910102E75480
:1005A000FE4F20818091000290910102019665E446
:1005B00070E0CAD690930102809300022093C60097
:1005C000FF91EF91BF91AF919F918F917F916F912B
:1005D0005F913F912F910F900FBE0F901F90189534
:1005E000FC016115710599F447E050E060E070E0AE
:1005F00042A353A364A375A34DE050E060E070E014
:1006000046A357A360A771A710924B0208956130CB
:10061000710571F412A213A214A215A216A217A2B8
:1006200010A611A681E080934B0261E08DE057C6D1
:1006300008958F929F92AF92BF92CF92DF92EF92E6
:10064000FF920F931F9381E08F9385E08F9387E054
:100650008F9383E08F9384E08F9386EC882E912C88
:1006600092ECA92EB12C21ECC22ED12C30ECE32E31
:10067000F12C04EC10E025EC30E049EB51E062E0B5
:1006800072E080E491E08ED385E091E090934101A7
:100690008093400180E791E090936B0180936A0121
:1006A0008FE691E090936D0180936C0110926F0141
:1006B00087E090E0A0E0B0E0809362019093630156
:1006C000A0936401B09365018DE090E0A0E0B0E0FC
:1006D0008093660190936701A0936801B0936901CC
:1006E0000F900F900F900F900F901F910F91FF9010
:1006F000EF90DF90CF90BF90AF909F908F90089534
:10070000CF93DF93EC0140E056E960E070E066D102
:1007100061E08DE0ABD541E04EA72091FE01309124
:10072000FF0180910002909101022817390741F4DE
:100730004093000160914B028DE0DF91CF91CFC5D6
:10074000DF91CF9108951F93CF93DF93EC01162F84
:1007500083E8860F833028F46DE7CE01E2D260E2B1
:100760006127CE01DF91CF911F91DBC2CF92DF9243
:10077000EF92FF920F931F93CF93DF938C01D62EAE
:10078000C72E7A01E9012134310508F045C01092E5
:10079000000161E08DE0A3D52091FE013091FF01C1
:1007A00080910002909101022817390751F4F80155
:1007B00062A173A184A195A16115710581059105BF
:1007C00071F56EE7C801ADD26C2F6E5FC801BBDF5B
:1007D0006C2DC801B8DF6D2DC801B5DFD12C8D2D72
:1007E00090E08C179D0740F4F701E80FF91F608136
:1007F000C801A9DFD394F3CF6FE7C80192D2F80103
:1008000066A177A180A591A5611571058105910566
:1008100009F0A4D4CE0105C08FEF9FEF02C09ED493
:10082000D0CFDF91CF911F910F91FF90EF90DF908C
:10083000CF900895AB0123E030E061E070E296CF05
:10084000CF93DF9300D000D0CDB7DEB749835A8372
:100850006B837C8324E030E0AE014F5F5F4F60E04C
:1008600070E384DF0F900F900F900F90DF91CF9186
:100870000895CF93DF931F92CDB7DEB7698321E050
:1008800030E0AE014F5F5F4F60E070E06FDF81E00E
:1008900090E00F90DF91CF910895CF92DF92EF9289
:1008A000FF920F931F93CF93DF936C017B01EA01BB
:1008B0006115710579F1209769F141345105E8F02E
:1008C00040E050E00FE310E09801241B350B4E0D83
:1008D0005F1D60E070E0C60149DF0C171D07E9F0FD
:1008E0009801205C3F4FC217D30708F49E01C2173E
:1008F000D307A8F0A8018901E7CF9A01AB0160E016
:1009000070E0DF91CF911F910F91FF90EF90DF90FA
:10091000CF902CCF80E090E003C0C80101C0CE0191
:10092000DF91CF911F910F91FF90EF90DF90CF90CB
:100930000895CF92DF92EF92FF920F931F93CF9380
:10094000DF93CDB7DEB7C054D1090FB6F894DEBF40
:100950000FBECDBF6C016115710571F17B0100E027
:1009600010E0F701849198018823E9F02F5F3F4F51
:10097000E1E0F0E0EC0FFD1FE00FF11F8083203479
:10098000310529F08FEFE81AF80A8901EACF20E44F
:1009900030E0AE014F5F5F4F60E070E0C601E6DE21
:1009A00020E030E0EFCFAE014F5F5F4F60E070E0DE
:1009B000C601DCDEC80102C080E090E0C05CDF4F11
:1009C0000FB6F894DEBF0FBECDBFDF91CF911F9160
:1009D0000F91FF90EF90DF90CF900895CF92DF922C
:1009E000EF92FF92CF93DF93EC016A017B01EC89D8
:1009F000FD8981E090E008A002C0880F991F0A9449
:100A0000E2F7808360E874E88EE190E0A701960148
:100A1000AFD4215031094109510956954795379571
:100A20002795211580E1380790F0EC89FD89108227
:100A300060E472E48FE090E0A701960199D4215020
:100A40003109410951095695479537952795E88908
:100A5000F9893083EA89FB89208319A2EE89FF890D
:100A6000408181E090E09C010C8C02C0220F331F7A
:100A70000A94E2F7422B4083EE89FF8940819C0172
:100A80000D8C02C0220F331F0A94E2F7422B4083E1
:100A9000EE89FF8940819C010E8C02C0220F331F1A
:100AA0000A94E2F7422B4083EE89FF8920810F8C64
:100AB00002C0880F991F0A94E2F7809582238083F1
:100AC000DF91CF91FF90EF90DF90CF900895BF928C
:100AD000CF92DF92EF92FF92CF93DF93EC016A0106
:100AE0007B01B22EEC89FD8981E090E008A002C074
:100AF000880F991F0A94E2F7808360E874E88EE11A
:100B000090E0A701960134D42150310941095109DF
:100B10005695479537952795211580E1380790F030
:100B2000EC89FD89108260E472E48FE090E0A70117
:100B300096011ED421503109410951095695479516
:100B400037952795E889F9893083EA89FB892083DD
:100B5000E88DF98DB082EE89FF89408181E090E0D7
:100B60009C010C8C02C0220F331F0A94E2F7422B27
:100B70004083EE89FF8940819C010D8C02C0220FC9
:100B8000331F0A94E2F7422B4083EE89FF894081AC
:100B90009C010E8C02C0220F331F0A94E2F7422BF5
:100BA0004083EE89FF8920810F8C02C0880F991F36
:100BB0000A94E2F7809582238083DF91CF91FF90A2
:100BC000EF90DF90CF90BF900895CF93DF93FC011B
:100BD00086859785DC01AB5BBF4FEC01C95BDF4FBE
:100BE0004D915C9111972881398142175307C1F7C4
:100BF000A689B7894C9181E090E09C01048C02C0E9
:100C0000220F331F0A94E2F7209524232C93A68900
:100C1000B7894C919C01058C02C0220F331F0A94A6
:100C2000E2F7209524232C93A689B7894C919C0147
:100C3000068C02C0220F331F0A94E2F7209524236A
:100C40002C93A689B7892C91078C02C0880F991F15
:100C50000A94E2F7809582238C9384859585FC0124
:100C6000E95BFF4F20813181329731832083DF910F
:100C7000CF910895FC0124853585F901EB5BFF4F89
:100C8000808191813296208131818B5B9F4F821BC5
:100C9000930B65E470E058C3FC0184859585FC01E5
:100CA000EB5BFF4F408151813296208131814217A9
:100CB000530741F00190F081E02DE80FF91F80818A
:100CC00090E008958FEF9FEF0895FC01848595854E
:100CD000FC01EB5BFF4F40815181329620813181D5
:100CE0004217530781F0A081B181A80FB91F2C9141
:100CF00080819181019665E470E026D391838083A1
:100D0000822F90E008958FEF9FEF0895FC0181A15D
:100D1000882329F0A489B5898C9186FFFBCF11A285
:100D200008951F93CF93DF93FC01162F26853785F7
:100D3000E901CB5BDF4F88819981019665E470E022
:100D400003D3D901A95BBF4F4D915C9111978417D3
:100D50009507D1F3A881B981A20FB31F1C93A68573
:100D6000B785AB5BBF4F11969C938E93A689B789CD
:100D70002C9181E090E0078C02C0880F991F0A94A3
:100D8000E2F7282B2C9381E081A30488F589E02DDC
:100D900080818064808381E090E0DF91CF911F911A
:100DA000089508958F929F92AF92BF92CF92DF9253
:100DB000EF92FF920F931F93CF93DF93CDB7DEB7E0
:100DC000FC011382128288EE93E0A0E0B0E08483FD
:100DD0009583A683B7838FE191E0918380837587A4
:100DE000648757874687318B208B138B028BF58A5C
:100DF000E48AD78AC68AB18EA08E938E828E8F8522
:100E0000848F8889858F8989868F8A89878F8B8946
:100E100080A3DF91CF911F910F91FF90EF90DF9012
:100E2000CF90BF90AF909F908F900895CF92DF9218
:100E3000EF92FF920F931F93CF93DF936C017A0190
:100E4000EB01E60EF71E00E010E0CE15DF0561F0C5
:100E50006991D601ED91FC910190F081E02DC601E0
:100E60000995080F191FF1CFC801DF91CF911F918C
:100E70000F91FF90EF90DF90CF900895EF92FF9247
:100E80000F931F93CF93DF938C01FB01C0E0D0E061
:100E900064917F018FEFE81AF80A662361F0D801A8
:100EA000ED91FC910190F081E02DC8010995C80FEA
:100EB000D91FF701EDCFCE01DF91CF911F910F9197
:100EC000FF90EF900895AF92BF92CF92DF92EF9292
:100ED000FF920F931F93CF93DF937C016B01C0E0D0
:100EE000D0E000E010E0D60114968D919C9115970A
:100EF000C817D90780F4D701ED91FC91A080B1808B
:100F0000BE01C6019ED0682FC701F5010995080FE3
:100F1000191F2196E8CFC801DF91CF911F910F9142
:100F2000FF90EF90DF90CF90BF90AF900895823008
:100F3000E8F4E82FF0E0EE0FFF1FE45BFD4F718354
:100F40006083813041F0809169008C7F842B809395
:100F50006900E89A089580916900440F551F440F75
:100F6000551F837F842B80936900E99A089582300E
:100F700068F4813011F0E89801C0E998E82FF0E0BA
:100F8000EE0FFF1FE45BFD4F1182108208951F9248
:100F90000F920FB60F9211242F933F934F935F93AD
:100FA0006F937F938F939F93AF93BF93EF93FF9331
:100FB00080914C0290914D02892B29F0E0914C02D6
:100FC000F0914D020995FF91EF91BF91AF919F91E3
:100FD0008F917F916F915F914F913F912F910F90E2
:100FE0000FBE0F901F9018951F920F920FB60F9281
:100FF00011242F933F934F935F936F937F938F931E
:101000009F93AF93BF93EF93FF9380914E02909184
:101010004F02892B29F0E0914E02F0914F02099581
:10102000FF91EF91BF91AF919F918F917F916F91C0
:101030005F914F913F912F910F900FBE0F901F9096
:101040001895FC01248135816217730748F480816B
:101050009181009729F0FC01E60FF71F8081089528
:1010600080E008959FD08CB58F7B8CBD80E491E0AB
:1010700047DB4BD8C1EDD6E049D82097E9F391DEA4
:10108000FBCF1F920F920FB60F9211242F933F9315
:101090008F939F93AF93BF9380915102909152028F
:1010A000A0915302B09154023091500226E0230FD8
:1010B0002D3720F40296A11DB11D05C029E8230F8C
:1010C0000396A11DB11D209350028093510290936D
:1010D0005202A0935302B093540280915502909112
:1010E0005602A0915702B09158020196A11DB11D60
:1010F0008093550290935602A0935702B0935802E2
:10110000BF91AF919F918F913F912F910F900FBE03
:101110000F901F9018953FB7F894809155029091C9
:101120005602A0915702B091580226B5A89B05C05F
:101130002F3F19F00196A11DB11D3FBF6627782FE3
:10114000892F9A2F620F711D811D911D43E0660F3B
:10115000771F881F991F4A95D1F70895CF92DF9284
:10116000EF92FF92CF93DF936B017C01D4DFEB0111
:10117000C114D104E104F10471F0CDDF6C1B7D0BCF
:10118000683E7340A8F381E0C81AD108E108F1086D
:10119000C851DC4FEDCFDF91CF91FF90EF90DF9002
:1011A000CF900895789484B5826084BD84B58160C1
:1011B00084BD85B5826085BD85B5816085BDEEE65F
:1011C000F0E0808181608083E1E8F0E0108280813E
:1011D00082608083808181608083E0E8F0E08081AC
:1011E00081608083E1EBF0E0808184608083E0EBCC
:1011F000F0E0808181608083EAE7F0E080818460B4
:10120000808380818260808380818160808380810F
:10121000806880831092C1000895833081F028F4A3
:10122000813099F08230A1F008958630A9F087309E
:10123000B9F08430D1F4809180008F7D03C080911B
:1012400080008F7780938000089584B58F7702C0E7
:1012500084B58F7D84BD08958091B0008F7703C0E1
:101260008091B0008F7D8093B0000895CF93DF937D
:1012700090E0FC01E458FF4F2491FC01E057FF4F40
:101280008491882349F190E0880F991FFC01E25571
:10129000FF4FA591B4918C559F4FFC01C591D491FE
:1012A0009FB7611108C0F8948C91209582238C938C
:1012B000888182230AC0623051F4F8948C91322FD5
:1012C000309583238C938881822B888304C0F89483
:1012D0008C91822B8C939FBFDF91CF9108950F93B8
:1012E0001F93CF93DF931F92CDB7DEB7282F30E047
:1012F000F901E859FF4F8491F901E458FF4F149127
:10130000F901E057FF4F04910023C1F0882319F041
:10131000698383DF6981E02FF0E0EE0FFF1FEC555A
:10132000FF4FA591B4919FB7F8948C91611103C0C0
:101330001095812301C0812B8C939FBF0F90DF916B
:10134000CF911F910F910895AA1BBB1B51E107C0BC
:10135000AA1FBB1FA617B70710F0A61BB70B881F45
:10136000991F5A95A9F780959095BC01CD010895D4
:10137000A1E21A2EAA1BBB1BFD010DC0AA1FBB1F99
:10138000EE1FFF1FA217B307E407F50720F0A21B0B
:10139000B30BE40BF50B661F771F881F991F1A9478
:1013A00069F760957095809590959B01AC01BD01A2
:1013B000CF010895EE0FFF1F0590F491E02D0994E1
:0413C000F894FFCFCF
:1013C400010000000039044D04990471013A0665D6
:1013D400064C066A0167016801690100000000917A
:1013E4000616073E0763073A0665064C068606EEB0
:0613F400046705E5050099
:00000001FF
